S325080000008C6F002065010008AD0B00084D0B00087D0B00088D070008611400080000000080
S32508000020000000000000000000000000410F0008FD080008000000007B0100087D01000843
S32508000040951400087F0100087F0100087F0100087F0100087F0100087F0100087F01000829
S325080000607F0100087F0100087F0100087F0100087F0100087F0100087F0100087F01000832
S325080000807F0100087F0100087F0100087F0100087F0100087F0100087F0100087F01000812
S325080000A07F0100087F0100087F0100087F0100087F0100087F0100087F0100087F010008F2
S325080000C07F0100087F0100087F0100087F0100087F0100087F0100087F0100087F010008D2
S325080000E07F0100087F0100087F0100087F0100087F0100087F0100087F0100087F010008B2
S325080001007F0100087F0100087F0100087F0100087F0100087F0100087F0100087F01000891
S325080001207F0100087F0100087F0100087F010008DFF80CD000F05CFA00480047C1490008F7
S325080001408C6F0020EFF30980704780F309887047EFF30880704780F30888704740BA70470D
S32508000160C0BA70470648804706480047FEE7FEE7FEE7FEE7FEE7FEE7FEE7FEE7FEE7FEE7A4
S32508000180151000083101000840EA01039B0703D009E008C9121F08C0042AFAD203E011F8AE
S325080001A0013B00F8013B521EF9D27047D2B201E000F8012B491EFBD270470022F6E710B597
S325080001C013460A4604461946FFF7F0FF204610BD421C10F8011B0029FBD1801A704730B5FA
S325080001E004460020034600E05B1C934203D2E05CCD5C401BF8D030BD30B50B46014600202B
S325080002002022012409E021FA02F59D4205D303FA02F5491B04FA02F52844151EA2F1010235
S32508000220F1DC30BD2DE9F05F0546002092469B4688460646814640241BE0284641464746AB
S32508000240224600F0F6F953465A46C01A914110D311461846224600F0DDF92D1A67EB0108FC
S325080002604F4622460120002100F0D4F917EB00094E41201EA4F10104DFDC484631462A46D2
S325080002804346BDE8F09F2DE9FE4F804681EA0300C00F0C46009021F0004123F00045B8EBFE
S325080002A00200A94105D24046214690461C460B46024623F00040104347D0270DC7F30A00FA
S325080002C0C3F30A510290401A019040286BDAC3F3130040F4801B0098924620B10023D2EB1C
S325080002E0030A63EB0B0B01985946C0F14002504600F090F906460D4650465946019A00F0E6
S32508000300A8F910EB08006141002487EA115284EAE7731A4340D0009A62B3019A012A4FEAAE
S32508000320075215DC001B61EB02014FF0004202EA0752CDE90042001C41F5801132462B4671
S3250800034000F0A6F903B0BDE8F08F40462146F9E7001B61EB0201001C41F5801300185B4159
S325080003602018A2F5001747EB030140EAD570B6196D4111E06D084FEA360645EAC0754FEAEF
S325080003800752001B61EB0201001C41F5801149084FEA30000019514132462B4603B0BDE803
S325080003A0F04F00F068B90098012240000023D0EB020263EBE073009821464FEAE074B8EB32
S325080003C0000061EB0401E9E783F000435BE781F0004158E72DE9FE4F81EA030404F00044F8
S325080003E021F0004100944FF0000B23F0004350EA01045ED052EA03045BD0C3F30A54C1F3C6
S325080004000A552C44A4F2F3340194A0FB0254C1F3130141F48011C3F3130343F4801301FB9C
S32508000420024400FB034E840A970A44EA815447EA8357A4FB076802958D0A05FB07854FEADE
S32508000440932C04FB0C542705029D4FEA065847EA1637B5EB08056EEB070C870E920E47EA11
S32508000460811742EA8312A7FB0201B6EB0B0164EB00042B0D43EA0C335E1844EB1C50DA469B
S325080004805146E7FB0201C5F313044FEA0B3343EA14534FEA0432019C43EA0603A4F10C0411
S325080004A00294009CCDE900B400F0F2F803B0BDE8F08F00200146F9E72DE9F04D81EA0304D5
S325080004C004F0004B21F0004514464FF0000A23F0004150EA050220D054EA01021DD0C5F36B
S325080004E00A570246C5F31303C1F31300C1F30A5640F4801543F48013A7EB0608101BD64622
S3250800050008F2FD3873EB050002D308F1010801E092185B41B8F1000F03DA00200146BDE89C
S32508000520F08D00204FF48011064684460EE0171B73EB050705D3121B63EB050306434CEAC2
S32508000540010C49084FEA300092185B4150EA0107EDD152EA030012D082EA040083EA05017C
S32508000560084305D0101BAB4106D20122002306E000224FF0004302E06FF0010253101AEBE2
S3250800058006004CEB085110EB0A0041EB0B01BDE8F04D00F070B8C1F30A52C1F3130140F276
S325080005A0FF3341F480119A4202DA00200146704740F233439A42A2F2334202DC524200F070
S325080005C038B800F027B8000030B5002904DB4FF00044404264EB0101002B04DB4FF000447E
S325080005E0524264EB0303994208BF904230BD0000064C074D06E0E06840F0010394E8070018
S3250800060098471034AC42F6D3FFF796FD90500008B0500008202A04DB203A00FA02F10020E9
S3250800062070479140C2F1200320FA03F3194390407047202A04DB203A21FA02F000217047F3
S3250800064021FA02F3D040C2F120029140084319467047202A06DBCB17203A41FA02F043EAA4
S32508000660E07306E041FA02F3D040C2F12002914008431946704710B5002B08DA401C41F18C
S32508000680000192185B411A4301D120F0010010BD2DE9F04D92469B4611B1B1FA81F202E02A
S325080006A0B0FA80F220329046FFF7B4FF04460F4640EA0A0041EA0B0153465A46084313D0CE
S325080006C0114653EA010019D0C8F140025046FFF7B0FF05460E46504659464246FFF79AFF6D
S325080006E0084305D0012004E020463946BDE8F08D0020054346EAE0762C4337430A986305DF
S32508000700E40AA0EB08000022FD0A44EA47540A3002D500200146E9E7010510196941DDE971
S32508000720084500196941BDE8F04DA4E770B58D1810F8014B14F0030201D110F8012B2311CD
S3250800074006D110F8013B03E010F8016B01F8016B521EF9D1ABB110F8012B04F00C048A1A42
S325080007600C2C03D0A2EB84129B1C08E010F8014BA2EB0422F8E712F8014B01F8014B5B1EA4
S32508000780F9D5A942D4D3002070BD0000054C4FF4FA65206810B104A102F0D2FA284603F09E
S325080007A018FBF6E7000000204275734661756C745F48616E646C65720D0A0000002901682F
S325080007C002D041F0010102E04FF6FE72114001607047000001684FF6FE7211400160002115
S325080007E0016041608160C1603149314A0839904203D1486840F00F0006E02D4A14329042A7
S3250800080004D1486840F0F00048607047284A2832904203D1486840F47060F5E7244A3C32E8
S32508000820904203D1486840F47040EDE7204A5032904203D1486840F47020E5E71C4A6432CE
S32508000840904203D1486840F47000DDE7184A7832904203D1486840F07060D5E7154A111F1F
S32508000860904203D1086840F00F0006E0114A1432904204D1086840F0F000086070470D4AE1
S325080008802832904203D1086840F47060F5E7094A3C32904203D1086840F47040EDE7054A1C
S325080008A050329042EAD1086840F47020E5E700000800024008040240406880B2704730B50D
S325080008C0026847F6F0739A430C6A8B682343D1E904452C4323438C692343CC6923434C6AD0
S325080008E023438C6A234313430360CA6842600A6882604968C16030BD41607047054C4FF49C
S32508000900FA65206810B104A102F01AFA284603F060FAF6E70000002044656275674D6F6EAD
S325080009205F48616E646C65720D0A00000149C860704700000020024070B505464FF43026E1
S32508000940304600F06FF8042811D1094C206940F0020020616561206940F040002061304667
S3250800096000F060F8216941F6FD721140216170BD0020024008490420CA68D20701D001201D
S325080009807047CA68520701D502207047C968C906FBD5032070470000002002400248016998
S325080009A041F08001016170470020024004490A6822F010020A600A6802430A6070470000D7
S325080009C000200240F0B506464FF400570D46384600F028F804280CD1064C206940F0010026
S325080009E020613580384600F01DF82169BA1E11402161F0BD00200240034A116801F03801FC
S32508000A000143116070470000002002400348024941600349416070472301674500200240ED
S32508000A20AB89EFCD00B50346FFF7A4FF02E0FFF7A1FF5B1E012803D0002B00D1052000BD56
S32508000A40002BF4D1FAE7F0B5CC78002204F00F03E40601D58C7823430C784FF00F0C14F09A
S32508000A60FF0F4FF0010E1BD005680E880EFA02F42640A64210D196000CFA06F725EA07073B
S32508000A8003FA06F5CE783D43282E02D0482E02D002E0446100E00461521C082AE5D3056091
S32508000AA00A88FF2A1CD94468002202F108060EFA06F50E882E40AE420ED196000CFA06F73A
S32508000AC0BC4303FA06F7CE783C43282E00D14561CE78482E00D10561521C082AE5D344608E
S32508000AE0F0BD0000F0B5144C002801DAE36900E06368450D2E0185B2C0F30157B540C0F3D1
S32508000B000342032F05D0C6020AD503269640B34307E023F07062636823F07063636002E0BD
S32508000B20AB4343F0706201B12A43002801DAE261F0BD6260F0BD000000000140024600208A
S32508000B4092680A4200D0012070470000054C4FF4FA65206810B104A102F0F2F8284603F07B
S32508000B6038F9F6E700000020486172644661756C745F48616E646C65720D0A00054C4FF4F6
S32508000B80FA65206810B104A102F0DAF8284603F020F9F6E7000000204D656D4D616E6167BC
S32508000BA0655F48616E646C65720D0A00054C4FF4FA65206810B104A102F0C2F8284603F0A0
S32508000BC008F9F6E7000000204E4D495F48616E646C65720D0A00000030B50F23C278017827
S32508000BE00125F2B1144A126801F1E02102F4E062C2F5E062120AC2F10404D3404278A2409C
S32508000C0084781C401443220181F80024007800F01F018D404009800000F1E020C0F800513F
S32508000C2030BD01F01F0085404809800000F1E020C0F8805130BD00000CED00E0024A114036
S32508000C40014302480160704780FFFF1F08ED00E0044A0029516901D0014300E081435161D2
S32508000C607047000000100240044A0029D16901D0014300E08143D1617047000000100240B8
S32508000C80044A0029116901D0014300E0814311617047000000100240044A0029916901D0DF
S32508000CA0014300E0814391617047000000100240044A0029D16801D0014300E08143D160A9
S32508000CC0704700000010024010B500F033F84FF48034204600F0C2F800F00EF9012822D103
S32508000CE01020FFF763FE0220FFF786FE002000F0ABF8002000F0DCF8A01100F0CFF84FF481
S32508000D00E011204600F0E4F8012000F0DBF8392000F07AF80028FAD0022000F0E3F800F034
S32508000D208BF80828FBD1BDE81040012144F23C00FFF7B2BF0C48016841F00101016041683C
S32508000D400A4A114041600168094A11400160016821F480210160416821F4FE0141604FF4B0
S32508000D601F01816070470000001002400000FFF8FFFFF6FE30B5204A5168204B11F00C01F1
S32508000D8003D0042901D0082901D0036012E05168536801F470114FF0020413F4803F04EB39
S32508000DA0914102D053689B0301D5154B00E0134B5943016051680F2303EA1111114B5C5CA9
S32508000DC00168E14041605468072505EA14241C5D21FA04F48460546805EAD4241B5DD94027
S32508000DE0C1605268032303EA9232064B1B1F9A5CB1FBF2F1016130BD0010024000127A00F6
S32508000E0000093D00B0020020034600205909094A01290AD002290AD0516A03F01F02012392
S32508000E2093400B4200D0012070471168F5E7116AF3E70000001002400248406800F00C00F2
S32508000E407047000000100240034A516821F0F0010143516070470000001002400B490A68AF
S32508000E6022F480320A600A6822F480220A60B0F5803F07D0B0F5802F03D1086840F4A020D7
S32508000E8008607047086840F48030F9E700100240014908607047000000004242034A5168AC
S32508000EA021F4E061014351607047000000100240034A516821F4605141EAC00050607047B2
S32508000EC000100240014908667047000000004242034B5A68084322F47C12104358607047FE
S32508000EE000100240034A516821F0030101435160704700000010024018B500204FF6FF74D4
S32508000F0000903120FFF780FF0099491C0091A14201D00028F5D03120FFF776FF002800D089
S32508000F20012018BD00B591B06A460E21002003F00BF810B1292011B000BD2A20FBE700000E
S32508000F40054C4FF4FA65206810B104A101F0F8FE284602F03EFFF6E7000000205356435FD6
S32508000F6048616E646C65720D0A0000000CB50023264800930193016841F4803101604FF620
S32508000F80FF71026802F400320192009A521C0092019A12B9009A8A42F3D10168890333D587
S32508000FA0012101911A490A6842F010020A600A6822F003020A600A6842F002020A6041683E
S32508000FC0416041684160416841F480614160416821F47C114160416841F4E81141600168EB
S32508000FE041F08071016001688901FCD5416821F003014160416841F0020141604168C1F362
S3250800100081010229FAD10CBD01930CBD00100240002002400F4810B5016841F00101016057
S3250800102041680D4A1140416001680C4A11400160016821F480210160416821F4FE01416061
S325080010404FF41F018160FFF791FF05494FF00060086010BD001002400000FFF8FFFFF6FE5B
S3250800106008ED00E00029018802D041F0800101E021F08001018070470029018802D041F0F7
S32508001080010101E021F0010101807047002930F8441F02D041F4004101E0C1F30E010180F3
S325080010A0704700004B4910B5884202D10121C41486E0B0F1804F09D0474988420DD1012172
S325080010C00220FFF7DDFD0021022064E001210846FFF7D6FD002101205DE04049884206D1A7
S325080010E001210420FFF7CCFD0021042053E03C49884206D101210820FFF7C2FD00210820F7
S3250800110049E03849884206D101211020FFF7B8FD002110203FE03449884206D10121202089
S32508001120FFF7AEFD0021202035E03049884202D10121441444E02E49884202D10121CC04D0
S325080011403EE02C49884202D101210C0538E02A49884202D101214C0532E02849884206D15F
S3250800116001214020FFF78CFD0021402013E02449884206D101218020FFF782FD00218020E6
S3250800118009E0204988420AD1841501212046FFF777FD00212046BDE81040FFF771BD1A49BC
S325080011A0884202D101210C040AE01849884202D101214C0404E0164988420AD101218C045E
S325080011C02046FFF775FD2046BDE810400021FFF76FBD10BD002C01400004004000080040CF
S325080011E0000C0040001000400014004000340140004C014000500140005401400018004071
S32508001200001C00400020004000400140004401400048014070B5028C22F010020284028C8A
S325080012208388048B0D8824F4E6464FF6FF7404EA052535430E8922F0200204EA06161643B7
S325080012404A8804EA02123243104EB04202D0104EB04215D122F080064A8923F4406304EACC
S325080012600212324322F040068A8804EA021232438E8904EA86061E43CB8904EA83033343C6
S3250800128083800583C9880187028470BD002C014000340140028B4FF6FF7322F4006203EA9E
S325080012A0012111430183704730B502881B4C1C4DA0420DD0A8420BD0B0F1804F08D0194B00
S325080012C0984205D0184B984202D0184B984203D122F070034A881A43154B984206D0154B0D
S325080012E0984203D022F44073CA881A4302808A8882850A880285A0420AD0A84208D00E4A31
S32508001300904205D00D4A904202D00D4A904201D1097A01860121818230BD0000002C014099
S32508001320003401400004004000080040000C004000100040001400400040014000440140A8
S3250800134000480140C943018070470029818902D041F4005101E021F4005181817047002AFD
S32508001360828A01D00A4300E08A43828270470246002012880A4200D00120704710B5C1F35E
S32508001380421301F01F040121A140012B07D0022B07D01430002A026805D00A4304E00C30B2
S325080013A0F8E71030F6E78A43026010BD30B50446008A85B00D464CF6FF710840E988014337
S325080013C02182A0894EF6F3110840A9882A8911436A8902431143A181A08A4FF6FF410840C6
S325080013E0A9890143A1826846FFF7C4FC1948844201D1039800E00298A189090400EBC001F1
S3250800140001EB0010296801D5490000E08900B0FBF1F06422B0FBF2F109010B096FF018056F
S325080014206B4300EB8300A3891D044FF0320306D503EBC000B0FBF2F000F0070005E003EBE1
S325080014400010B0FBF2F000F00F000843208105B030BD000000380140C1F308018180704766
S32508001460054C4FF4FA65206810B104A101F068FC284602F0AEFCF6E7000000205573616791
S32508001480654661756C745F48616E646C65720D0A000000000B48006810B10BA101F050FC44
S325080014A04FF47A7002F095FC012080F313880B4801680B4A01F4E06111430160BFF3408FC2
S325080014C0FEE7000000000020575744475F49525148616E646C65720D0A0000000CED00E0C7
S325080014E00400FA0530B5034600200246074C09E09D5C521C85EA102592B234F8155085EABA
S32508001500002080B28A42F3D330BD0000904D0008426A0068490A8078B1FBF0F0121D02CA21
S3250800152019B1884203D3401AF8E7002070471168084470474269891E921E8A4201D80020E0
S325080015407047826A807801FB0020704770B50B4D1420A86000F02CFDA87808B1084C01E02F
S325080015604FF47A7400F024FDFF2803D0A96809B1641EF7D20021A96070BD000098020020FA
S32508001580809698002DE9F04789460C6800E0641C21782F29FBD05C29F9D085690B22202139
S325080015A0284600F01AFE0020024617464FF0080CE15D7F1C20292ED92F292CD05C292AD093
S325080015C02E2901D060450AD3BCF1080F30D12E292ED1082091064FF00B0C0A0EE8E7802993
S325080015E026D220A300E05B1C1E7816B18E42FAD11EE0A1F14103192B02D842F0020207E0C4
S32508001600A1F16103192B03D8203942F00102C9B22954401CCCE73C44C9F80040202901D86F
S32508001620042100E0002118B12878E52803D004E00620BDE8F08705202870BCF1080F01D1B4
S325080016409006020E02F00300012801D141F01001C2F38100012801D141F00801E9720020BE
S32508001660E7E70000222A2B2C3A3B3C3D3E3F5B5D7C7F00002DE9FF474FF000090746C0F824
S3250800168000901646084600F09AFA050003D50B2004B0BDE8F087824850F825408CB13C6056
S325080016A0207820B1607802F0E5FDC1070BD084F80090E8B2607002F099FBC10708D00320A5
S325080016C0E6E70C20E4E70EB1400704D40020DFE71EB1400701D50A20DAE7002529462046A3
S325080016E000F0CEFE012822D100206E4604EB001191F8F22101F5F7712AB10A7AD1F80910F5
S3250800170042EA012100E0002146F82010401C0428ECD3002756F8275025B12946204600F030
S32508001720AFFE00E0022040B17F1C042FF2D3032801D0E0BB01E00120AAE7B4F83B00B0F5B2
S32508001740007F5DD1B4F8461029B994F85400D4F8551040EA0121A16194F840C084F803C0C0
S32508001760BCF1010F02D0BCF1020F49D194F83D600CFB01FCA670D6B1701E064240D1B4F897
S325080017804120228110073BD1B4F8430028B994F85000D4F8513040EA0320E38F3BB103EB82
S325080017A00C0707EB1217B8422AD3C01B00E027E0B0FBF6F020B3012640F6F678404500D3AD
S325080017C002264FF6F678404500D30326801C2F44A7622B446061C4E90753032E12D07AB112
S325080017E003EB0C026262022E17D000F0010200EB400002EB500000F2FF10B1EB502F0ED2AD
S325080018000D2045E7002AFBD194F85C20D4F85D30800042EA03226262EDE74000EBE74FF050
S32508001820FF302061E06080206071032E30D1B4F8600001282CD12046691C00F08CF838BB83
S3250800184084F80590B4F82E02A0F52A4155391FD194F83000D4F8311040EA012011498842D7
S3250800186016D194F81402D4F8151240EA01200E4988420DD194F81802D4F8191240EA0120AC
S32508001880206194F81C02D4F81D1240EA0120E06003492670091F0888401C0880E08015E7AF
S325080018A0C4020020525261417272416173B50446019908782F2801D05C2801D1491C019167
S325080018C00025A56001980078202805D20021204600F0E2FB65617CBD01A92046FFF752FEF7
S325080018E00028F8D10021204600F0D6FBF8B92169206800F030F8D0B961690A7872B1CA7A8A
S3250800190012070ED40B25A26900236D1E08D311F8013B12F8016B9B1BF7D002E0042006E0D6
S325080019202BB10021204600F0D9FD0028DFD0A169C97A28B10428CED14907CCD405207CBD5A
S325080019404907FCD46169C87AC006F7D5206800F038FEA060C0E770B50446C06A0D46A84290
S325080019600ED0204600F07CF838B9607801232A4604F1300102F0F0FB08B1012070BDE56203
S32508001980002070BD38B501210920FFF785F90120ADF8000018208DF8030003208DF8020010
S325080019A069460E48FFF74FF801214803FFF774F90B4C2046FFF776FB4FF4FA6000F066FAF6
S325080019C001212046FFF758FB01212046FFF75EFBBDE83840002000F041B90000000C0140DD
S325080019E000340140F8B51B48C178002931D10121C170002000903020FFF74EF94FF4F055D8
S32508001A00ADF8005003208DF80200134C10268DF8036069462046FFF716F82561A515ADF89E
S32508001A20005048208DF8030069462046FFF70BF825610420ADF800008DF803606946074815
S32508001A40FFF701F8E014206140002061002000F09FF9F8BD98020020001001400014014096
S32508001A602DE9F0410446007900B3E66A04F130016078012332460F4602F004FC10B1012088
S32508001A80BDE8F08100202071206AA169301A88420CD2E57808E0A0690123064460783246DF
S32508001AA0394602F0EFFB6D1E022DF4D20020E7E72DE9F0410F00064606D000F02BFB022897
S32508001AC009D20120BDE8F081F56815B17069A84207D8012505E0411CF4D071698142F1D88F
S32508001AE03D462C467069641CA04202D80224022D0AD32146304600F00DFB38B1411CE1D0D0
S32508001B000128DFD0AC42EDD10020DBE76FF070422146304600F068FB30B957B12246394638
S32508001B20304600F061FB20B101280DD001242046C8E7F4603069411CF9D0401E30617079D9
S32508001B4040F001007071F2E74FF0FF34EFE770B504460126002100F09FFA88B90025216914
S32508001B602068FFF7F8FE58B961690978E5290AD049B100250121204600F0B0FC0028EED076
S32508001B80042804D004E06D1CB54201D0F2E70720050012D121692068FFF7DDFE05000CD155
S32508001BA020220021606900F018FBD4E905010B2200F00BFB216801200871284670BD10B57F
S32508001BC003464FF0FF301C68002C13D0214600E0491C0A78212A0ED33A2AF9D114F8012BED
S32508001BE0303A0A2A06D28C4204D1002A02D1491C1046196010BD002010BD2DE9F0410F4637
S32508001C000446022916D36069B84213D900261FE03946204600F07EFA05001CD0012D09D03F
S32508001C20681C09D000223946204600F0DDFA060011D103E002260EE001260CE02069411C91
S32508001C4005D0401C2061607940F0010060712F466069B842DCD83046BDE8F08102490870AE
S32508001C6001460248FFF712BA90020020003401402DE9F0478846204F8146044600EB080648
S32508001C806420B860B87808B11C4D00E01C4D00F08FF9FF2803D1B96809B16D1EF7D200213C
S32508001CA0B960FE2822D100F083F9207000F080F9607000F07DF9A07000F07AF9E070241D45
S32508001CC0B442F0D300F074F9044600F071F940EA04241FFA88F14846FFF704FCA04208D01A
S32508001CE00848006810B108A101F02AF80020BDE8F0870120FBE700009802002080969800FA
S32508001D00A0860100000000202F2F637263206572726F720D0A00000070B50D460446FFF7BF
S32508001D2015FCFF281CD1284600F032FBFD2D19D00025207800F02CFB6078A41C00F028FB53
S32508001D406D1E15F0FF05F4D1FF2000F021FBFF2000F01EFB00F02CF900F01F00052801D0A7
S32508001D60002070BD012070BD70B50D4601464FF000601446814200D88000091AFEF75EFF72
S32508001D802846FEF7E8F9A446BDE870406047000018B100200249086170470F20FAE70000A7
S32508001DA09802002038B517480D46174C016891B9012101600802FEF76FFF002000900320E3
S32508001DC08DF802000420ADF800008DF8030069462046FEF738FE01222521284600F0D4FE44
S32508001DE00A2001F0F6FF04212046FEF7A7FE044600222521284600F0C7FE0CB1012038BDF8
S32508001E00002038BDC8020020002001402DE9F04104460068A1684FF0000882784FF00206CA
S32508001E20521E02EA512212F0FF054FF0010710D129B1626A2AB12046FFF76AFB04E02069E8
S32508001E4002E0616900F066F9022818D3411C12D0606161692068FFF76DFB80B10544A06931
S32508001E60A8420FD0206801232A46407804F1280102F072F930B1E7710120BDE8F081E67175
S32508001E800220FAE74046A561F7E700002DE9F041304E054688B07068A84257D02E4890FB95
S32508001EA0F5F4B4F57A4F01DA472017E02B48844203DA40F2CF200A2105E02948844205DA23
S32508001EC041F61F40642194FBF1F407E004EBC4014FF6FE70C900421C91FBF2F40027641ED5
S32508001EE0ADF81000DFF87C80ADF81440ADF81670ADF812708DF8187004A94046FFF7D4F9FE
S32508001F006020ADF800000120ADF802000420ADF8040004EBD4704008ADF806000220ADF80C
S32508001F2008000820ADF80A004001ADF80C00ADF80E7069464046FFF76DF908214046FFF769
S32508001F40A9F901214046FFF78DF8756008B0BDE8F08100009002002040420F0000C40900FB
S32508001F6000A8610000340140F0B50024182544F6AD367243059F0EE094FBF5F605FB164C8F
S32508001F8004FB042646FA0CF610F804C07E4086EA0C060E55641C9C42EEDB1846F0BD000027
S32508001FA081EA40000149085C70470000904F00082DE9F04172B604203449086034488F1485
S32508001FC0344E0069002849D17761376100BF00BFB0687761C0F30020376100BF00BFB168E6
S32508001FE07761C1F3002141EA4000376100BF00BFB1687761C1F3002141EA4000376100BF1D
S3250800200000BFB1687761C1F3002141EA4000376100BF00BFB1687761C1F3002141EA40007B
S32508002020376100BF00BFB1687761C1F3002141EA4000376100BF00BFB1687761C1F300216F
S3250800204041EA4000376100BF00BFB168C1F3002141EA400462B62046BDE8F081DFF8308079
S3250800206000257761D8F8100001F0A8FE37616006040EB068C00501D544F00104D8F8100002
S3250800208001F09CFE6D1C082DEBDBE3E710140140980200200010014070B5C18083680D4645
S325080020A00446012B34D020684169994230D923B90178032904D1436A13B18078060110E0CC
S325080020C00189A94224D9406A11E000F023F80346401C1BD0022B1BD320684069984217D934
S325080020E0AD1B2068B5421946EFD2FFF723FAE36070B100EB1510206105F00F013022206884
S3250800210002EB411108446061002070BD012070BD022070BD2DE9F0410D460446022909D390
S325080021206069A84206D92078012806D0022828D0032832D00120BDE8F081206A05EB55060D
S3250800214000EB56212046FFF706FC68BBC6F308002044761C90F83070206A00EB562120465D
S32508002160FFF7F9FB00BBC6F308002044E90790F8300047EA002001D00009DCE7C0F30B0033
S32508002180D9E7206A00EB15212046FFF7E4FB58B9E8B204EB4000008ECDE7206A00EBD51114
S325080021A02046FFF7D8FB10B14FF0FF30C3E740F2FF1000EA8500204490F83010D0F8310034
S325080021C041EA002020F07040B5E703E011F8013B00F8013B521EF9D27047C9B201E000F8A8
S325080021E0011B521EFBD270472DE9F04716460D460446022902D36069A84202D80220BDE827
S32508002200F087207806F0FF084FF00109012807D0022837D0032846D0022084F80490EEE7E2
S32508002220206A05EB550700EB57212046FFF793FB0028F2D1C7F3080020443030E90703D039
S32508002240017868F31F1100E03146017084F80490206A7F1C00EB57212046FFF77CFB002811
S32508002260DBD1C7F3080121443031EA0702D0C6F3071205E00A78C6F3032302F0F0021A43FF
S325080022800A70CAE7206A00EB15212046FFF763FB0028C2D1E9B204EB4101320A81F83080B4
S325080022A081F83120B9E7206A00EBD5112046FFF752FB0028B1D140F2FF1101EA85012144E0
S325080022C04FF07043D1F8312003EA0222324301F8302F130A4B70130C8B70120ECA709CE737
S325080022E070B50446FFF7BCFB05004FD12078032845D16079012842D1420204F13000002117
S325080023000646FFF76AFF552084F82E02AA2084F82F02522084F8300084F83100612284F8A2
S325080023203220412084F83300722184F8141284F8151284F8160284F81722206984F81802ED
S32508002340010A84F81912010C84F81A12000E84F81B02E06884F81C02010A84F81D12010CBC
S3250800236084F81E12000E84F81F02E2690123521CE2626078314601F085FF00206071002200
S325080023806078114601F0E0FD00B10125284670BD2DE9F05F044672B636483749374F0369F9
S325080023A004200A1D8602A3BB7E61230601D5086000E010603E6100BF7E61630601D5086064
S325080023C000E010603E6100BF7E61A30601D5086000E010603E6100BF7E61E30601D50860C7
S325080023E000E010603E6100BF7E61230701D5086000E010603E6100BF7E61630701D50860A5
S3250800240000E010603E6100BF7E61A30702D5086001E011E010603E6100BF7E61E30701D0FE
S32508002420086000E010603E6100BF00BF00BF00BF7E6162B6BDE8F09FDFF8388000258A468C
S32508002440814693467E612006484601D5514600E059460860D8F8100001F0B0FC6006040EF2
S325080024603E61D8F8100001F0A9FC6D1C082DE9DBDAE7000098020020101401400010014086
S3250800248010B5044600202071401EE0622046FFF762FA08B1032010BDB4F82E02A0F52A4191
S325080024A0553901D0022010BD94F86600B4F8671040EA01210848B0EB012F08D094F882104E
S325080024C0B4F8832041EA0221B0EB012F01D1002010BD012010BD0000004641542DE9F041B7
S325080024E0C78804467F1C38040E46000C2CD0206950B339075AD1401C2061E168206829B183
S325080025008278521E12EA171F04D04FE00089B8421AD94BE0FFF7FEFD0546012819D9681C92
S3250800252030D020684169A9423AD86EB1E168FFF7BFFA05000BD0012D0BD0681C22D0206860
S32508002540FFF78EFAF0B906E00420BDE8F0810720FBE70220F9E720684FF40072002130305D
S32508002560FFF73BFE29462068FEF7E4FF216800264FF00108C8620CE080F804802068FFF7C8
S325080025806FFA08B10120E0E72068C16A491C761CC16220688178B142EED8C16A891BC1622A
S325080025A0E56029462068FEF7C5FF2061E78007F00F013022206802EB4111084460610020E3
S325080025C0C3E70246488B1278032A02D1898A40EA0140704710B5FFF705FA02494FF40060C1
S325080025E0086110BD001001402DE9F041294F4FF400660C4605463E610A2001F0DFFB7E61CE
S32508002600280607D505F07F0500217720FFF7ECFF012804D8FEF79AFFFF2802D0FF20BDE840
S32508002620F0812846FFF7B4FE270E3846FFF7B0FEC4F307400646FFF7ABFEC4F30720804621
S32508002640FFF7A6FEE0B2FFF7A3FE29460020FFF7A7FC3946FFF7A4FC3146FFF7A1FC4146DB
S32508002660FFF79EFCE1B2FFF79BFC012101EB4000C0B2FFF78DFE4C2D01D1FFF799FC0A2457
S32508002680FFF796FC0106CAD5641E14F0FF04F7D1C5E700000010014081760A0AC2760A0C57
S325080026A00275090E4175704710B538B1016829B10A781AB1CA888088824201D0092010BDEE
S325080026C0487801F0D7FDC007F9D0032010BD00000348417841F0010141700020FFF758BBD6
S325080026E0980200202DE9F04116460D46044600F077F8E0784FF0FF3720B10020FEF712FCB2
S325080027002A2807D0204600F0A7F8B84202DA204600F0A2F8E07840B304F5AC708046464516
S3250800272005D033461CA2632100F0BEFE01E0FDF74FFD0020C4F8C401E06001266060667090
S32508002740A075E07560752076207594F8580130B10122414604F5A36001F0A2FF40B125B13C
S3250800276042460EA1284600F0EBFA3846BDE8F0812670D4F82435236145B142460DA1284664
S3250800278000F0DEFA12A1284600F0DAFA4146204600F078F90020E9E7257300006F70656EF6
S325080027A0206661696C65642C2046696C65203A25730D0A0046696C65206F70656E65643A5C
S325080027C025732053697A653A25640D0A0000000046696C652073656C65637465640D0A00BE
S325080027E010B50446007818B104F5A36001F0F0FDA07818B104F5E86001F0EAFD00202070F7
S32508002800A070E0606060A06010BD70B5044690F82D024FF0FF35E0B104F22D200646FDF720
S32508002820D7FC0346324600212046FFF75BFF401C0AD02046D4F8941200F04DF9401C03D0AC
S325080028400025204600F041F9002084F82D02C4F89402284670BD000038B504460020E07056
S325080028602070A070E060606001F0C0FA164DC00707D0286810B115A100F062FA4FF0FF303D
S3250800288038BD01221BA104F53A7001F0E3FE38B1286810B118A100F053FA6FF0050038BD58
S325080028A06A460121002001F04FFB48B900984FF40361B0FBF1F2286810B119A100F040FADA
S325080028C00120E070002038BD000000202F2F3B2323232323232323232323234572726F72FD
S325080028E02143616E277420696E6974205344210D0A000000000000002F2F3B2323232323F1
S32508002900232323232323234572726F7221665F6D6F756E7428302C2026667329210D0A008D
S325080029202F2F73642073697A653A25644D0D0A002DE9FF4F83B04FF000080446CDF80080E5
S32508002940C0789A4646464546002808D02178DFF8149104F5A36004F5AC7B019051B97EE010
S3250800296046B1DDE90401019A01F040FD60B1002060B106E0DDE904126B46019801F02DFF53
S3250800298068B1012816D04BE00120F1E70498FDF71FFC0090D4F8C401401CC4F8C40100989C
S325080029A0D8B3E068606000990844E060084607B0BDE8F08FBAF1000F23D131E0E768012DEC
S325080029C002DDC82001F003FA2046FFF745FFD9F8000018B15A4624A100F0B2F90122594638
S325080029E0019801F05DFEC8B100202070E76039462046676000F06FF8E07810B12078002898
S32508002A00AED128466D1C0228D8DBE07810B120780028A5D16FF00200C9E701E00120E4E728
S32508002A20207E10B16FF00100C1E7207820B1019801F0CEFC84F8008084F8168084F8178043
S32508002A4084F8158084F8188084F814802046FFF7DCFE401C01D0012682E784F800804FF005
S32508002A60FF30A4E7000000202F2F74727920746F20726573746172742066696C653A20254A
S32508002A80730D0A0070B5054609B10E4601E005F5AC763046FDF79CFB044607E0301910F8A0
S32508002AA0010C2F2804D05C2802D0641E002CF5DC002C09DB2246314605F2C910FDF764FBE9
S32508002AC00020291981F8C90170BDC178002901D000214170704770B50446C0780D4630B17F
S32508002AE0207820B104F5A36001F0B1FC10B14FF0FF3070BDE5600020656070BD70B50025C8
S32508002B00C5700570857004464570012084F8C801E56065602561A575E57565752576257590
S32508002B20E561642104F5AC70A560FDF746FB4FF4887104F14800FDF740FB642104F22D20FD
S32508002B40FDF73BFB84F8C951C4F8945284F8C051204670BD08B500200090312911D2032018
S32508002B608DF8020001EB4100064901EB80039B88ADF800308DF8032051F820006946FDF729
S32508002B8062FF08BD4400002001EB4100064901EB8000017A914206D0D0E900130AB10B619E
S32508002BA000E04B61027270474400002031290AD2064A01EB410002EB800152F82000898850
S32508002BC089B2FDF7BBBF002070470000440000202DE9F84380461E480168B1BB012101602E
S32508002BE00020009003208DF8020040F2FD10FEF753F801211748FDF775FF154F00253F1D20
S32508002C0005EB450607EB8604607A102801D014280DD1207A57F826100028606801D00861A9
S32508002C2000E04861227AE9B24046FFF7ADFFA088ADF80000607A8DF8030057F8260069464B
S32508002C40FDF701FF6D1C312DDAD34046BDE8F88340000020000430002DE9F0418846044645
S32508002C60D0F82C0233491646A1F1200751F82050D4F84002C8B194F84D0260B12846FDF731
S32508002C801BFE0028F7D1D4F8403232464146D4F8480298474AE0D4F82C02402157F82000F7
S32508002CA0FEF765FB0028E6D0EDE794F84D02D8B12846FDF701FE0028FAD172B6701C0DD0B6
S32508002CC000212846FDF77AFDC5F80C80B1B22846FDF712FE01212846FDF770FD62B6D4F8F9
S32508002CE02C02032817D021E0002511E0D4F82C0218F8051057F82000FEF7AEFBD4F82C0249
S32508002D00402157F82000FEF732FB0028F6D06D1CB542EBDBE3E794F8290238B10548303860
S32508002D20006818B1424604A100F00AF83046BDE8F0810000300000202D2D74783A25730041
S32508002D400FB418492DE9F0410446D0F82C0208AEA1F1200551F8207094F84D02B8B13846B2
S32508002D60FDF7AAFD0028F7D104F24F203346FF210546079A00F0ACFB002804DD0246294679
S32508002D802046FFF769FFBDE8F0015DF814FBD4F82C02402155F82000FEF7E9FA0028DBD0F4
S32508002DA0E2E70000300000202DE9F04F05464FF0000A91B0C5F81CA2C5F820A2C5F824A245
S32508002DC085F828A285F829A2C5E98B1AC5F838A2C5F83CA2C5F840A2C5F844A21E4685F8AE
S32508002DE04CA20C4685F84D6285F84EA2012117465046C5F85013CDE90BA00D900E900F907C
S32508002E0010902C216846FDF7D8F9012C03D0032C01D0022C6FD103208DF82E004FF0180B9E
S32508002E204FF480684FF04809012C04D0022C36D0032C18D033E0012144F20400FDF72CFFEF
S32508002E404FF40070ADF82C008DF82FB0DFF8CCB10BA95846FDF7F7FDADF82C808DF82F9059
S32508002E600BA9584619E001210820FDF715FF01218804FDF7F9FEADF82C80DFF8A4818DF83C
S32508002E802FB00BA94046FDF7DEFD4FF40060ADF82C008DF82F900BA94046FDF7D4FD2F60F6
S32508002EA00C97604FADF834A0ADF838A00C20ADF836A0ADF83CA0ADF83A0057F824000CA98D
S32508002EC0FEF774FA57F824000121FEF73EFA57F824004021FEF736FA032C02D04FF486708C
S32508002EE001E040F23C50A0F10100C5F8380203D005F1040001E089E04B48C5F83C02002EC9
S32508002F007DD001210846FDF7A3FEDFF8188108F1100858F82400FDF75DFC57F8240003A9F0
S32508002F20001D0090D5F83C02CDE9010AD5F8380256464FF0800981E841024FF44050CDE96A
S32508002F4008A0CDF818A0CDF81CA0CDF828A058F824006946FDF7B3FC58F824000121FDF7E0
S32508002F602DFC57F8240001224021FEF7F8F9A8F11400005D8DF8400003208DF841008DF800
S32508002F80426001208DF8430010A8FDF725FE57F82400002240F22661FEF7F0F957F824002A
S32508002FA0002240F22551FEF7E9F957F82400012240F22441FEF7E2F908F1100858F82400E0
S32508002FC0FDF708FC57F824006946001D009005F24F2001901020CDE90206CDE904694002D2
S32508002FE0CDE90860069607960A9658F82400FDF766FC57F8240001228021FEF7B0F90948DC
S325080030001038012C06D0022C06D0456011B02846BDE8F08F0560F9E78560F7E7000801400A
S32508003020000C014010000020CC02002070B50D46064608242806304602D500F0C1F901E021
S3250800304000F0A2F96806050E641E002CF2DC012213213068FFF798FD3046BDE8704000F0A5
S32508003060A4B82DE9F04116460D460746002409E029783846FFF7DAFF384600F0E5F848B164
S32508003080641C6D1CB442F3DB384600F0C1F80120BDE8F081384600F0BBF80020F8E72DE9C1
S325080030A0F04716468A4605469946006800221B21FFF76AFD300700D00120F21706EB1271AD
S325080030C000EB211800242AE0284600F03CF909EB04173812A02141EA4000C1B22846FFF7A1
S325080030E0A5FF284600F0B0F8012822D1F9B22846FFF79CFF284600F0A7F8D0B1604206EB41
S325080031000012102A00DD10220AEB04112846FFF7A8FF07460A2000F05CFE57B1641C44455F
S32508003120D2DB01221B212868FFF72EFD0120BDE8F08701221B212868FFF726FD0020F6E782
S325080031402DE9F0411D4616460F46804600F0FBF82C0AA02040EA4400C1B24046FFF766FFA5
S32508003160404600F071F800281DD0E9B24046FFF75DFF404600F068F8002814D0404600F082
S32508003180E2F8A12040EA4400C1B24046FFF74EFF404600F059F8002805D03246394640469B
S325080031A000F05EF9F0B2BDE8F08108B532200090411E009101D30846FAE708BD10B504469C
S325080031C0006800221321FFF7DFFC2046FFF7EDFF2046FFF7EAFF012212212068FFF7D4FC21
S325080031E0204600F07DF8002212212068FFF7CCFC2046FFF7DAFF2046FFF7D7FF012213219D
S325080032002068FFF7C1FC2046BDE8104000F068B810B50446006800221321FFF7B5FC204620
S3250800322000F05EF8012212212068FFF7ADFC204600F056F8012213212068FFF7A5FC20463D
S32508003240BDE8104000F04CB870B50446006801221321FFF799FC2046FFF7A7FF2046FFF760
S32508003260A4FF012212212068FFF78EFC2046FFF79CFF2046FFF799FF482213212068FFF738
S3250800328069FC2046FFF791FF2046FFF78EFF13212068FFF78BFC0546002212212068FFF78F
S325080032A073FC204600F01CF8142213212068FFF751FC3DB10448006810B104A1FFF740FDB7
S325080032C0002070BD012070BD000000202F2F6969632061636B206572726F72210D0A0000C1
S325080032E008B532200090411E009101D30846FAE708BD10B50446006801221321FFF744FC65
S325080033002046FFF752FF2046FFF74FFF012212212068FFF739FC2046FFF7E2FF00221221AD
S325080033202068FFF731FC2046FFF73FFF2046FFF73CFF002213212068FFF726FC2046BDE8A2
S325080033401040FFF7CDBF10B50446006801221221FFF71AFC012213212068FFF715FC204668
S32508003360FFF7BEFF002213212068FFF70DFC2046FFF7B6FF002212212068FFF705FC204664
S32508003380BDE81040FFF7ACBF10B50446006800221321FFF7F9FB2046FFF7A2FF01221221BF
S325080033A02068FFF7F1FB2046FFF79AFF002212212068FFF7E9FB2046BDE81040FFF790BF49
S325080033C010B50446006801221321FFF7DDFB2046FFF786FF012212212068FFF7D5FB204658
S325080033E0FFF77EFF002212212068FFF7CDFB2046BDE81040FFF774BF70B5002504462E4625
S32508003400012213212068FFF7BFFB2046FFF768FF012212212068FFF7B7FB482213212068A0
S32508003420FFF798FB2046FFF75BFF13212068FFF7BDFB69060D0E08B145F0010514221321ED
S325080034402068FFF787FB002212212068FFF79CFB2046FFF745FF761C082ED1DB284670BD45
S325080034602DE9F041002415460F468046561E0BE0FFF7C2FF3855B442404602DAFFF79EFED0
S3250800348001E0FFF736FF641CAC424046F0DBBDE8F041FFF7BDBE10B5002102C0FFF798FBDB
S325080034A0014640F8041D10BD0FB41CB50A46521ECDE9000207A9054B6A46069800F0DCF873
S325080034C0009A002111701CBC5DF814FBA73D00087CB5491E1C461546CDE90001044B6A466F
S325080034E02146284600F0C8F8009A002111707CBDA73D000802E008C8121F08C1002AFAD137
S3250800350070477047002001E001C1121F002AFBD1704700002DE9FF5FDDE90220010DDDF84F
S3250800352038B0024318D044F61050A1F2FF3141430D140F98012820D0A5EB0B00401C5FEA66
S32508003540000A4FF00004474EDFF81C91A046504616D5CAF1000728E00F98012443A20128EC
S3250800356008D0002100980F9BC0E90021C0E90243BDE8FF9F6FEA0B01F4E7CBF10000DEE746
S32508003580074612E0F80707D02246334640464946FCF720FF804689462246334610461946D5
S325080035A0FCF718FF04460E467F10002FEAD1DDE90201BAF1000F42464B4602DAFCF70AFF68
S325080035C001E0FCF779FF04460E460022284BFCF7FBFF03D84FF0FF30014607E00022254B68
S325080035E020463146FCF74FFEFCF7D5FF102409E0002C0ADB0A220023FCF714FE019B303259
S325080036001A55641E50EA0102F2D1641C019AC4F1110314440F9A012A03D0012208430DD17C
S325080036200AE0084304D000204FF0110B0F9080E7A3EB0B056D1E0DE05B4504DD4FF000021A
S3250800364005F1010504E003DA4FF00002A5F10105002AECD000980F99C0E90231C0E90045D2
S3250800366086E70000000024400000F03F300000000000F0430000E03F2DE9FF4F95B09B4630
S325080036808946064600250FE2252877D100242746F84A0121059400E0044316F8013F203BF8
S325080036A001FA03F01042F7D130782A2811D06FF02F033078A0F13002092A16D8059A44F029
S325080036C0020402EB820203EB42021044761C0590EFE759F8042B0592002A03DA504244F4FA
S325080036E00054059044F00204761C30782E2816D116F8010F44F004042A280DD06FF02F0209
S325080037003078A0F13003092B09D807EB870302EB4303C718761CF3E759F8047B761C307816
S325080037206C280FD006DC4C2817D068280DD06A2814D104E0742810D07A280FD10DE044F4E0
S3250800374000140AE044F4801401E044F440147278824202D104F58014761C761C30786628BC
S325080037600BD013DC582877D009DC002875D04528F6D04628F4D047281AD19DE118E0632898
S3250800378035D0642879D0652812D195E1702873D008DC6728F1D069286FD06E280DD06F2872
S325080037A006D1B5E073282CD0752875D0782874D05A46179990476D1C75E1C4F302500228F9
S325080037C009D003280DD0D9F8001004280DD00D6009F1040967E1D9F80010EA17C1E9005276
S325080037E0F6E7D9F800100D80F2E70D70F0E719F8041B8DF8001000208DF80100EA46012087
S3250800380003E059F804AB4FF0FF3061074FF0000102D40DE008F101018846B9420FDA80456C
S32508003820F8DB1AF808100029F4D108E008F1010188468142FADB1AF808100029F6D105988F
S325080038405B46A0EB080721463846179A00F094FA284400EB080507E04DE029E10DE01AF88A
S32508003860010B5A4617999047B8F10108F7D25B4621463846179A13E142E00A220092C4F3CA
S3250800388002524FF0000A022A08D059F804CB032A4FEAEC710AD00DE029E02AE009F10701BA
S325080038A021F00702F2E802C1914609E00FFA8CFC4FEAEC71042A03D14FFA8CFC4FEAEC71F3
S325080038C0002907DA0A460021DCF1000C61EB02012D2202E0220504D52B228DF804200122ED
S325080038E003E0E20701D02022F7E7904659E00A2102E010220DE010214FF0000A00910BE0CC
S3250800390010224FF0000A44F004040827009203E008224FF0000A0092C4F30252022A05D02D
S3250800392059F804CB0021032A08D009E009F1070121F00702F2E802C1914605E01FFA8CFC34
S32508003940042A01D10CF0FF0C4FF00008220728D5702806D0009B83F0100353EA0A0305D037
S325080039600EE040228DF80420012208E05CEA010206D030228DF804208DF805000222904697
S32508003980009B83F0080353EA0A030AD15CEA010201D1620705D530228DF804204FF001083A
S325080039A07F1E582804D034A003900EA802900DE036A0F9E753466046009AFCF733FC8446F1
S325080039C00398825C0298401E029002705CEA0100F0D1029806A9081A00F1200A600702D598
S325080039E024F4803400E00127574502DDA7EB0A0000E0002000EB0A01009005984144401ACC
S32508003A000590E00306D45B462146179A059800F0B3F90544002706E001A85A46C05D1799E8
S32508003A2090476D1C7F1C4745F6DBE0030CD55B462146179A059800F09FF9054404E0302001
S32508003A405A46179990476D1C0099481E00900029F5DC08E0029802995A460078491C0291F2
S32508003A60179990476D1CBAF10001AAF1010AF1DC65E10000092801003031323334353637F5
S32508003A803839616263646566000000003031323334353637383941424344454600000000B0
S32508003AA000F058F90544761C307800287FF4ECAD19B02846BDE8F08F620700D4062709F141
S32508003AC0070222F0070CFCE80223E14603F000485FEA080C02D00FF2702C0DE05FEA045CDD
S32508003AE002D50FF2682C07E05FEAC47C02D00FF2602C01E0AFF2700C4FF0FF3823F00043B3
S32508003B00CDF850C065280CD006DC452809D046281DD047283DD13DE0662818D067287ED1E8
S32508003B2038E00021112F01DB112000E0781CCDE9000106A90EA8FFF7EDFCDDE90F010E9A04
S32508003B4003910021009207F1010A04914DE04FF000400097CDE9011006A90EA8FFF7DAFC3D
S32508003B60DDE90F0203920E9B11990022DDF80CA00093049211B9791C00EB010AB7EB0A00AB
S32508003B8004D4C0F1FF3007F1010A0490AAEB0700019044E0012F00DA01270021112F01DD06
S32508003BA0112000E03846CDE9000106A90EA8FFF7B1FCDDE90F010E9A03910021049100924F
S32508003BC0BA4621070CD40399514500DA8A46BAF1010F05DD009AAAF10101515C302908D041
S32508003BE0B84202DA10F1040F06DA0121CDE9011015E0AAF10101E9E7002805DC04990144B7
S32508003C000491AAEB000102E0411C514500DD8A460499401A401C01904FF0004002902007CD
S32508003C2004D40198504501DBCDF8048000208DF84F0002980DF14F07B0F1004F25D02B2039
S32508003C400E9002984FF0020800280CDA404202902D200E9007E00A210298FCF7CDFA303101
S32508003C60029007F8011DB8F10001A8F10108F2DC02980028EFD1791E0E980870307800F09E
S32508003C80200040F0450007F8020D12A8C01B00F107081498007800B1012000EB0A01019859
S32508003CA001EBE07105984144401A401E0590E00306D45B462146179A059800F05DF80544A9
S32508003CC01498007818B15A46179990476D1CE00324D55B462146179A059800F04DF8054489
S32508003CE01CE00498002807DBDDE90301884203DD0098405C179901E0179930205A46904764
S32508003D00049805F10105401C04900198401E019004D12E205A46179990476D1CBAF1000106
S32508003D20AAF1010ADDDC05E017F8010B5A46179990476D1CB8F10001A8F10108F4DC5B46A9
S32508003D402146179A0598ABE62D0000002B000000200000002DE9F041044600251E46174620
S32508003D60880404D405E039462020B0476D1C641EF9D52846BDE8F0812DE9F0410446002523
S32508003D801E469046C80301D5302700E02027880404D505E041463846B0476D1C641EF9D59D
S32508003DA02846BDE8F0814A68002A06D00A68531C0B6010704868401E4860704708B50028A1
S32508003DC0009003DD0098411E0091FBD208BDAFF3008030B50446002242F6E06503E028460A
S32508003DE0FFF7ECFF521CA242F9DB30BD2DE9F84F0A2510B10120BDE8F88F504C607880072C
S32508003E0004D56078F7E70A20FFF7E1FF20780028F9D10121A0462170FEF7DCFB0020FDF702
S32508003E20B7FF0A24FEF7C4F8641E14F0FF04F9D10027B9466D1E6BD000214020FEF7D4FB5B
S32508003E400128F7D14FF47A71C8F80C1098F8020008B13B4C01E04FF4FA644FF4D571482014
S32508003E60FEF7C2FB012808D00021E920FEF7BCFB012836D80227E92635E000256E46FEF759
S32508003E8097F870556D1CEDB2042DF8D39DF8020001283BD19DF80300AA2837D14FF0804A55
S32508003EA04546E86830B15146E920FEF79DFB08B1641EF6D2E86848B300217A20FEF794FB7E
S32508003EC020BB0024FEF774F83055641CE4B2042CF8D39DF80000400601D50C2716E00427D9
S32508003EE014E0012741264546E86830B100213046FEF77AFB08B1641EF6D2E86828B14FF405
S32508003F0000715020FEF770FB00B10027C8F80C900C4988F804704FF40060444608613FB14F
S32508003F20607820F0010060700120FDF731FF01E0FEF7CEFB84F8009063E7000098020020C6
S32508003F4080969800001001402DE9FF47804E1546884630B1042004B0BDE8F0870A20FFF70C
S32508003F6036FF30780028F9D1012737703C46B8F1050F04D07078C00712D00324E4E0287866
S32508003F8028B1012807D0022808D00424DCE0FEF79FFB0024D8E0FEF71DFBFAE76F70F8E73D
S32508003FA04046DFF8B0914FF400680F286FD2DFE800F008134E52C8C8C8C8C8C89C9FA4AB86
S32508003FC0BA0045464F46C9F81480FDF7BFFAFF2800D100243D61B5E000214920FEF704FB2A
S32508003FE0002873D110216846FDF742FE00286DD09DF80000B7EB901F09D19DF808109DF8CD
S32508004000090007EB012108440004800940E09DF805009DF80A1000F00F0000EBD1109DF8D3
S3250800402009109DF8072001F0030100EB41009DF80810C01F890901EB82019DF8062002F042
S32508004040030201EB8221491C8140296077E04FF40070288073E030794FF00001400719D5EC
S32508004060CD20FEF7C1FA88BBFDF7A2FF10216846FDF7FEFD50B33024FDF79AFF641E14F085
S32508004080FF04F9D19DF80A00010910201CE058E0286054E04920FEF7A7FAB8B9102168462D
S325080040A0FDF7E6FD90B13079800710D59DF80A009DF80B108006400E00EBD1109DF80D1024
S325080040C0FF2202EB9111401C8840E1E73AE09DF80B008107C90E01EB50109DF80A10401CC6
S325080040E0C1F38401491C4843D2E73079287026E00021492003E010211DE000214A20FEF76E
S3250800410073FA0028F7D01DE000217A20FEF76CFAC0B90424FDF74CFF641E05F8010B14F0B3
S32508004120FF04F7D10EE00021CD20FEF75DFA48B9FDF73EFF40212846FDF79AFD10B10024ED
S3250800414000E00424C9F8108000203070204602E798020020001001402DE9F0471C461546D4
S325080041600E4638B934B130484178C90704D00320BDE8F0870420FBE70327804602E00A20F1
S32508004180FFF725FE98F800000028F8D10121C14688F800104FF4007ADFF8908015E099F894
S325080041A00400000700D46D02012C294617D05220FEF71AFA28B3D8F8000010B11CA1FEF787
S325080041C0BFFD23494FF4006008617F1E01D3002CE5D1002189F800101CB30120C8E7512088
S325080041E0FEF702FA28B1D8F800000028E9D019A1E5E751463046FDF73BFD0028E1D000247A
S32508004200DFE751463046FDF733FD28B1641E05F1010506F50076F4D100214C20FEF7E4F9AD
S32508004220CFE70020A4E7000098020020000000202F2F524541445F4D554C5449504C455F91
S32508004240424C4F434B206572726F720D0A000000001001402F2F524541445F53494E474CDD
S32508004260455F424C4F434B20206572726F720D0A0000000008B10120704701484078704757
S32508004280980200202DE9F0471C4615460E4638B934B138484178C90704D00320BDE8F08706
S325080042A00420FBE74178490701D50220F6E70179090700D455020327814602E00A20FFF764
S325080042C086FD99F800000028F8D1012189F80010DFF8A48019E0012C21D099F8040010F071
S325080042E0060F03D02146D720FEF77EF929465920FEF77AF928B3D8F8000010B11FA1FEF78D
S325080043001FFD26494FF4006008617F1E01D3002CE1D1002189F8001054B30120BEE72946BB
S325080043205820FEF761F930B9FE213046FDF7F4FC08B10024E5E7D8F800000028E1D018A13B
S32508004340DDE7FC213046FDF7E7FC28B1641E05F1010506F50076F4D1FD210020FDF7DCFC8A
S325080043600028CED1D8F800000028CAD012A1C6E7002093E798020020000000202F2F5752FB
S325080043804954455F4D554C5449504C455F424C4F434B206572726F720D0A200000100140C6
S325080043A02F2F57524954455F424C4F434B206572726F720D0A2000002F2F53544F505F5464
S325080043C052414E206572726F720D0A200000000010B5044600F0A5FA002806D12046FEF775
S325080043E063F9002801D10021216010BD2DE9F0411546926880460646EB79C2F308000024F7
S3250800440093B9EB684F1E9A1ABA4200D21746BC4216DAC1050BD1A8683F1B2044A860002419
S325080044202846FDF7F3FC10B10020BDE8F0812918401C91F82810641C06F8011B0A29E6D144
S3250800444000203070A8682044A8604046EDE72DE9F84F04460020E0710D462046FEF724F9D5
S325080044605FEA000A6ED1E07900286BD1666A4FF0010904F12808002E65D0681C2AD0E06878
S32508004480A84200D20546A560002D48D02046691EFDF73EF86061226801461046FDF74AF888
S325080044A000287CD021686D1E8A78521E02EA552215182089C005E8D0A269AA42E5D0A07979
S325080044C0400634D5487801234146FFF7DBFE002870D128E056F804BB21690227C9B1002575
S325080044E0BF1C009188466D1C2068FDF713FE0146012854D9481C5DD008F101008142F1D0B2
S325080045005F4502D820C6009801C6206840698842E5D8606A5F45076002D80020306096E03D
S325080045204FF0110A93E0A07920F04000A071206801232A4640784146FFF70EFE002878D158
S32508004540A56184E067E0E068A84203D2A179890700D405460027A068A760FDB12268917855
S325080045604E0268B1691E401EB1FBF6F1B0FBF6F3994205D3711E8843A0602D1A61690CE0AE
S32508004580216949B900211046FDF792FA014601283FD0481C4DD021616161E1B928E038E08C
S325080045A0A0798007206806D5FDF782FA010005D1354612E03DE0FDF7ADFD0146481C38D0C8
S325080045C0012926D920684069884222D96161A068AD1B3044A060B542E2D8A0682844A06083
S325080045E0E80505D02068FCF7A5FF90B100EB55272089C00522D0A269BA421FD0A07940066F
S325080046000FD52068012341464078FFF73BFE80B903E00220E071BDE8F88FA07920F040006A
S32508004620A071206801233A4640784146FFF794FD18B184F807900120EDE7A761D4E90201D0
S32508004640884204D9E060A07940F02000A0715046E1E7000017B581B014460298009068465E
S32508004660FDF7ADFA002802DA0B2004B010BD0B4B002253F8201001B10A700199002900D02F
S325080046800A7043F8201001D0012C01D00020ECE7002202A901A8FCF7EDFFE6E7C40200205D
S325080046A02DE9F7478BB006000ED04FF0000802F01F0727F001020CA96846C6F80080FCF76C
S325080046C0D9FF050004D086E009200EB0BDE8F08707A8069068460C99FDF7E8F8059C0500A0
S325080046E001D104B9062517F01C0F4AD055B1042D03D16846FDF72BFA0546059C47F00807A2
S3250800470045B168E0E07A10F0110F44D1780701D5082560E0380744D500F04FF9A073010A4E
S32508004720E173010C2174000E607484F80B8084F81C8084F81D8084F81E8084F81F802146BF
S325080047400098FDF73EFF814600212046FDF7A4FF00990120B9F1000F087120D0009849469A
S32508004760D0F82CA0FDF749FA050034D10099A9F10100C86051460098FDF7EDF805000CD011
S3250800478029E045BBE07AC10601D5042523E0B90703D5C00701D007251DE0380701D547F03A
S325080047A0200700982146C06AC6E90704B77186F8078047460098FDF704FF3061207FD4F89C
S325080047C01D1040EA0120C6E90270B761776200983060C088B080284677E72DE9F84F8946A9
S325080047E000219A46164604461960FDF75DFF002812D1E07900280FD1A079C0070BD0D4E957
S325080048000210401A04F128014FF0010B0091864200D9064680E00720BDE8F88FA168C805AE
S3250800482062D120688278521E02EA512212F0FF0510D129B1626A2AB12046FCF769FE04E0DA
S32508004840206902E06169FDF765FC022819D3411C44D0606161692068FCF76CFE88B100EBA5
S325080048600508770A21D02068EA1981788A4200D94F1B40783B4642464946FFF76DFC68BB46
S3250800488002E00220E071C7E7A07940060BD5A169A1EB0800B84206D209EB40204FF400724F
S325080048A00099FDF792FC7D022CE0A269424519D0A07940060AD52068012300994078FFF798
S325080048C0E1FC58B9A07920F04000A07120680123424640780099FFF73FFC18B184F807B0B0
S325080048E0012099E7C4F818802089C0F30800C0F50075B54200D9354601192A46484628316B
S32508004900FDF763FCA068A9442844A060DAF800004119761BCAF80010002E7FF47FAF002057
S325080049207AE770B50446FDF7BFFE00280ED1A1798A060BD548060ED52068012304F128015C
S325080049404078A269FFF79EFC08B1012070BDA07920F04000A071E1692068FCF7FCFF00288D
S32508004960F4D1256AE87A40F02000E872207B2877A089000A6877E068000CA877E068000EB4
S32508004980E87728462169FDF787FE00F016F8A875010AE975010C2976000E68760020A874E1
S325080049A0E874A07920F02000A0712168012008712068BDE87040FDF793BC00207047000019
S325080049C00024ADF5EA5D9E4D2646FCF77DF901234FF4E13219460DF6B810FEF7E5F99949A3
S325080049E041F61457A0466F4481F834813846FEF7EFF8A7F108094846FEF74DFDCDF8A08982
S32508004A00FCF7C0FF4FF49670FFF7E1F901A8FEF775F8DFF834823946D8F80000CDF8A00968
S32508004A204846FDF7BFF940B12F213846FEF7BEF818B1DDF8A009401C7DD1092383A20DF67F
S32508004A40B81101A8FDF74EFE0028F5D101221721BA463846FEF798F805984FF4EF2398427E
S32508004A606ADA01208DF81B0003460C220DF6A41101A8FDF75DFF0C287ED17749DDF8A40936
S32508004A8088427AD1DDF8A809CDF8B00941F60C50302304220DF6B4116844FEF751FB0DF52C
S32508004AA01B6003C8814203D1DDF8A009401CE3D1012219215046FEF767F8DDF8A00941F285
S32508004AC00C5AEA444FF40069401C52D1302304220DF51A610AF50060FEF7E1FA49E000209B
S32508004AE04FF4007157F82020401C55408842F9DBDDF8B0090DF60C5B00904B4622465946B6
S32508004B00BA463846FDF730FA08EBC42007464A46594600F0FDF849465046FBF74EFB3846D5
S32508004B204A46514600F0EAF84A4651465846FBF756FB58B101E05DE040E008EBC42247A15E
S32508004B400DF6B810FEF7FCF801261EE03A464BA10DF6B810FEF7F4F81920641C94FBF0F12D
S32508004B6000FB1140012816D0042814D00020FDF775F800234A4601E027E019E05746514673
S32508004B8001A8FDF7D5FE0028A9DCDDF8AC09A84203D0012619E00120E9E7B6B941F60C5090
S32508004BA0302304220DF51B616844FEF778FA0CE037A10DF6B810FEF7C3F806E00246012649
S32508004BC03BA10DF6B810FEF7BBF801A8FDF708FE86B141F288344FF47A750120FDF73EF832
S32508004BE02046FFF7F4F80020FDF738F82846FFF7EEF8F2E7144AD8F80010121DCDF8A0190D
S32508004C00126840464B1C04D0FDF7AEF80020FDF725F8354C4FF4FA65AE10206810B133A182
S32508004C20FEF78EF80120FDF719F82846FFF7CFF80020FDF713F83046FFF7C9F8EDE700007A
S32508004C4023433DEF44000020008800087570646174652E7A77000000443D2D3F777269746B
S32508004C6065206461746120746F20616464723A2578204572726F72210D0A0000777269744A
S32508004C806520616464723A2578200D0A000000002F2F5468652066696C65206973206E6FA0
S32508004CA074207570646174652066696C650D0A006669726D776172652073697A65203A2541
S32508004CC06420627974652065786365656420616C6C6F7765642073706163652073697A65F1
S32508004CE03A25640D0A000000000000206E6F206669726D776172650D0A00000010B5002353
S32508004D0002E0C45CCC545B1C9342FADB002010BD2DE9F047074602EBD27020F00100101A51
S32508004D20002486188946700500D00120F21706EB525100EBE1280120FCF7AAF82120FCF7F3
S32508004D4063F80028FAD00120FCF7A2F8FBF75EFE3420FBF7EBFD780508D1002504E007EB7D
S32508004D60C520FBF7E9FD6D1C4545F8DB06EBD675B4EB650F07DA39F8141007EB4400FBF7D5
S32508004D8021FE641CF4E7FBF709FE0020BDE8F08700002110422063308440A550C660E770FA
S32508004DA0088129914AA16BB18CC1ADD1CEE1EFF13112100273325222B5529442F772D66255
S32508004DC0399318837BB35AA3BDD39CC3FFF3DEE36224433420040114E664C774A444855415
S32508004DE06AA54BB528850995EEE5CFF5ACC58DD55336722611163006D776F6669556B446D5
S32508004E005BB77AA719973887DFF7FEE79DD7BCC7C448E5588668A778400861180228233894
S32508004E20CCC9EDD98EE9AFF9488969990AA92BB9F55AD44AB77A966A711A500A333A122A54
S32508004E40FDDBDCCBBFFB9EEB799B588B3BBB1AABA66C877CE44CC55C222C033C600C411C14
S32508004E60AEED8FFDECCDCDDD2AAD0BBD688D499D977EB66ED55EF44E133E322E511E700ED4
S32508004E809FFFBEEFDDDFFCCF1BBF3AAF599F788F8891A981CAB1EBA10CD12DC14EF16FE1CC
S32508004EA08010A100C230E3200450254046706760B9839893FBA3DAB33DC31CD37FE35EF354
S32508004EC0B1029012F322D2323542145277625672EAB5CBA5A89589856EF54FE52CD50DC514
S32508004EE0E234C324A01481046674476424540544DBA7FAB79987B8975FE77EF71DC73CD7D4
S32508004F00D326F2369106B01657667676154634564CD96DC90EF92FE9C899E9898AB9ABA993
S32508004F204458654806782768C018E1088238A3287DCB5CDB3FEB1EFBF98BD89BBBAB9ABB53
S32508004F40754A545A376A167AF10AD01AB32A923A2EFD0FED6CDD4DCDAABD8BADE89DC98D13
S32508004F60267C076C645C454CA23C832CE01CC10C1FEF3EFF5DCF7CDF9BAFBABFD98FF89FD3
S32508004F80176E367E554E745E932EB23ED10EF01E0009121B242D363F48415A536C657E77BF
S32508004FA019100B023D342F265158434A757C676E323B2029161F040D7A7368615E574C45F3
S32508004FC02B2239300F061D14636A7178474E555C646D767F4049525B2C253E3708011A13D3
S32508004FE07D746F6659504B42353C272E1118030A565F444D727B60691E170C053A332821B3
S325080050004F465D546B627970070E151C232A31384148535A656C777E09001B122D243F3692
S3250800502058514A437C756E671019020B343D262F737A6168575E454C3B3229201F160D0472
S325080050406A6378714E475C55222B3039060F141D252C373E0108131A6D647F7649405B5252
S325080050603C352E2718110A03747D666F5059424B171E050C333A21285F564D447B72696032
S325080050800E071C152A233831464F545D626B7079B050000800000020CC0200002C070008D9
S325080050A0BC510008CC020020C06C000004350008A20001300425262708100A38014000444A
S325080050C00040004804110F1006580002406C041230042110124410128010521C10130010D6
S325080050E0301006200000011044200418014007610C62020C120C2452012492200C1130329C
S325080051002044413C62040C213082020C621024116C92803092400C92084892014892203C6F
S325080051207130218492089082101892802421484301141892020C21F06130B1545240FC92D1
S325080051401490421C1861CC751442202462012482100C92013C92020C920430A13C921024EE
S3250800516092200C92402475389214189620B092148456107446043862200C560C5C5204D89C
S325080051805680E09608D4920CFC52209056282052800C5208244648A4624024197012FF01B0
S325080051A0214CE1013404020406E320050102030404A00506070809260000000001400044CA
S325080051C0AD1775D3BAB6D889C93E35184D6A071330042110124410122DC76793CEB153A77B
S325080051E0EF7E333A0C0603114420041801400761A15517975C6915BA76198D2F0B13313274
S32508005200FFFFFFFFFFFFFFFFFFFFFFFFFFFFFFFFFFFFFFFFFFFFFFFFFFFFFFFFFFFFFFFFA0
S32508005220FFFFFFFFFFFFFFFFFFFFFFFFFFFFFFFFFFFFFFFFFFFFFFFFFFFFFFFFFFFFFFFF80
S32508005240FFFFFFFFFFFFFFFFFFFFFFFFFFFFFFFFFFFFFFFFFFFFFFFFFFFFFFFFFFFFFFFF60
S32508005260FFFFFFFFFFFFFFFFFFFFFFFFFFFFFFFFFFFFFFFFFFFFFFFFFFFFFFFFFFFFFFFF40
S325080058005240FC921490421C1861CC751442202462012482100C92013C92020C920430A109
S325080058203C92102492200C92400C75384214B4618475B092148456107446043862200C5691
S325080058400C5C5204D85680E09608D4920CFC52209056282052800C5208244648A4524024FE
S3250800586003202A000112FF01E1103404020406FF20050102030404A005060708094B000045
S32508005880FFFFFFFFFFFFFFFFFFFFFFFFFFFFFFFFFFFFFFFFFFFFFFFFFFFFFFFFFFFFFFFF1A
S325080058A0FFFFFFFFFFFFFFFFFFFFFFFFFFFFFFFFFFFFFFFFFFFFFFFFFFFFFFFFFFFFFFFFFA
S325080058C0FFFFFFFFFFFFFFFFFFFFFFFFFFFFFFFFFFFFFFFFFFFFFFFFFFFFFFFFFFFFFFFFDA
S325080058E0FFFFFFFFFFFFFFFFFFFFFFFFFFFFFFFFFFFFFFFFFFFFFFFFFFFFFFFFFFFFFFFFBA
S32508008800B4D7002045890008EDD90008F9D10008BDD90008A1A0000881F4000800000000C5
S3250800882000000000000000000000000069EC000845A5000800000000AB89000849ED000861
S32508008840A90B01085F8900085F8900085F8900085F8900085F8900085F8900085F890008BD
S32508008860E5A500085F8900085F8900085F8900085F8900085F8900085F8900085F890008C8
S325080088805F8900085F8900085F8900085F8900085F8900085F8900085F8900085F8900084A
S325080088A05F8900085F8900085F8900085F890008EDEE000819EF000845EF00085F890008CB
S325080088C05F8900085F8900085F8900085F8900085F89000819F300085F8900081FF30008BC
S325080088E075A500085F8900085F8900085F8900085F8900085F8900085F8900085F890008B8
S325080089005F8900085F89000871EF00085F8900085F8900085F8900085F8900085F89000851
S325080089205F8900085F8900085F8900085F890008DFF80CD000F082FE00480047D5C7020811
S32508008940B4D700200648804706480047FEE7FEE7FEE7FEE7FEE7FEE7FEE7FEE7FEE7FEE7C2
S3250800896071ED000831890008EFF3108072B6704780F31088704724484FF0FF010170002072
S3250800898080F309881D480121017020484FF08051016062B6FEE71D484FF08051016070476A
S325080089A01A484FF0805101607047EFF3098028B1203880E8F00F12490968086000B50A48E1
S325080089C080475DF804EB0B480B490A7802700C480C490A680260106890E8F00F203080F3B4
S325080089E009884EF0040E704707E00008D9DB0008881300208A1300208B1300208D13002030
S32508008A00A0130020A813002022ED00E004ED00E072B6704762B67047EFF3108072B67047DB
S32508008A2080F31088704710B5431A934209D28318881803E010F8011D03F8011D521EF9D2FC
S32508008A4010BD40EA01039B0703D009E008C9121F08C0042AFAD203E011F8013B00F8013B8F
S32508008A60521EF9D210BDD2B201E000F8012B491EFBD270470022F6E710B513460A460446B5
S32508008A801946FFF7F0FF204610BD30B505462A460B4612F8010B13F8014B08B1A042F8D090
S32508008AA01CB1002802D06D1CF1E7284630BD10B5044604E00B7800F8013B03B1491C521EF2
S32508008AC0F8D2204610BDCAB2401E10F8011F8A4202D00029F9D100207047421C10F8011B9F
S32508008AE00029FBD1801A704710B5002200E0521C835C8C5CA34201D1002BF8D1D8B2E1B25E
S32508008B00401A10BD30B504460020034600E05B1C934203D2E05CCD5C401BF8D030BD0346C9
S32508008B2011F8012B00F8012B002AF9D11846704730B505460020034600E05B1C934205D229
S32508008B40EC5CC85C201A01D1002CF6D130BD2DE9F04791460F4680460446002614F8015B98
S32508008B602DB100F0D3FB0068405DC007F6D12B2D02D02D2D18D0641E4A463946204600F065
S32508008B80D2FB27B13968A14201D1C7F8008071054FF002040BD54042002803DD20F0E2FF77
S32508008BA00460A007BDE8F08746F48066E4E70028F8DA20F0D7FF04606FF00040F2E770B5B4
S32508008BC0064620F0CFFF046805460A2200213046FFF7BDFF2C6070BDF0B480EA0102D40F84
S32508008BE04200B2EB410F02D20246084611464A0042D0C30DDDB2C1F3C752AD1A202D35DACC
S32508008C00C1F3160141F4000204B15242C5F1200602FA06F12A411044B3EBD05F23D0C4B138
S32508008C20012DA0EBC35009DCF0BC4FF0004202EAC352DBB200F5000000F01BBC400000F1CD
S32508008C40807000EBC350A0F1807040EAD170490009E0490841EAC071A0EBC35000F50000BA
S32508008C60400800EBC350F0BC00F0FABB6142012202EB4101001BF6E7F0BC704781F000414D
S32508008C80AAE780F00040A7E780EA010210B502F00043400022D04A001FD0010E01EB1261B7
S32508008CA0C0F35600C2F3560240F4000042F40002A0FB022000047F39140400D0401C50EA2D
S32508008CC0124001D44000491EC2B20C0604EBD010401C4008802A02D003E0002010BD20F063
S32508008CE00100002900DA0020184310BD30B480EA010202F0004530F0004221F0004013D0FC
S32508008D0090B1C30DD40DC2F31601C0F31600E41A41F4000140F400027D34914201D3641C7C
S32508008D2000E04900002C02DA30BC002070474FF400000023914201D3891A034340084FEABA
S32508008D404101F7D151B1914202D14FF0004105E002D24FF0010101E06FF0010103EBC45095
S32508008D60284430BC00F07CBB420005D0C0F3C7525242914201DC0020704700EBC1507047B5
S32508008D802DE9FE4F804681EA0300C00F0C46009021F0004123F00045B8EB0200A94105D26D
S32508008DA04046214690461C460B46024623F00040104347D0270DC7F30A00C3F30A5102908F
S32508008DC0401A019040286BDAC3F3130040F4801B0098924620B10023D2EB030A63EB0B0BC3
S32508008DE001985946C0F14002504600F05EFA06460D4650465946019A00F076FA10EB08008A
S32508008E006141002487EA115284EAE7731A4340D0009A62B3019A012A4FEA075215DC001B62
S32508008E2061EB02014FF0004202EA0752CDE90042001C41F5801132462B4600F084FB03B029
S32508008E40BDE8F08F40462146F9E7001B61EB0201001C41F5801300185B412018A2F500172A
S32508008E6047EB030140EAD570B6196D4111E06D084FEA360645EAC0754FEA0752001B61EB8A
S32508008E800201001C41F5801149084FEA30000019514132462B4603B0BDE8F04F00F046BB08
S32508008EA00098012240000023D0EB020263EBE073009821464FEAE074B8EB000061EB0401A6
S32508008EC0E9E783F000435BE781F0004158E72DE9FE4F81EA030404F0004421F000410094D8
S32508008EE04FF0000B23F0004350EA01045ED052EA03045BD0C3F30A54C1F30A552C44A4F2BC
S32508008F00F3340194A0FB0254C1F3130141F48011C3F3130343F4801301FB024400FB034EE4
S32508008F20840A970A44EA815447EA8357A4FB076802958D0A05FB07854FEA932C04FB0C54C7
S32508008F402705029D4FEA065847EA1637B5EB08056EEB070C870E920E47EA811742EA83124B
S32508008F60A7FB0201B6EB0B0164EB00042B0D43EA0C335E1844EB1C50DA465146E7FB0201ED
S32508008F80C5F313044FEA0B3343EA14534FEA0432019C43EA0603A4F10C040294009CCDE91A
S32508008FA000B400F0D0FA03B0BDE8F08F00200146F9E72DE9F04D81EA030404F0004B21F002
S32508008FC0004514464FF0000A23F0004150EA050220D054EA01021DD0C5F30A570246C5F3CF
S32508008FE01303C1F31300C1F30A5640F4801543F48013A7EB0608101BD64608F2FD3873EB6B
S32508009000050002D308F1010801E092185B41B8F1000F03DA00200146BDE8F08D00204FF4BE
S325080090208011064684460EE0171B73EB050705D3121B63EB050306434CEA010C49084FEA80
S32508009040300092185B4150EA0107EDD152EA030012D082EA040083EA0501084305D0101B3D
S32508009060AB4106D20122002306E000224FF0004302E06FF0010253101AEB06004CEB08510C
S3250800908010EB0A0041EB0B01BDE8F04D00F04EBA70B521F0004303430CD0C1F30A550024D9
S325080090A0D5EB040564EB0403D617AD1AB34102DB0020014670BD201841EB025170BDC10FB6
S325080090C080EAE0700844CA079623002100F0D1B996230022114600F0CCB90EB5C10F80EAB3
S325080090E0E0700844CA07002140F233438DE80E000A460B4600F027FA03B000BD00F0004255
S3250800910020F00040C10DC0F3160040F400007F2901DA00207047962903DCC1F19601C840DD
S3250800912001E096398840002AF4D04042704720F00040C10DC0F3160040F400007F2901DAE4
S3250800914000207047962903DCC1F19601C840704796398840704770B5C1F30A5201F00045CB
S325080091600024C1F3130140F2FF3341F480119A4201DA002070BD40F233439A42A2F233423A
S3250800918003DC524200F0A0F800E090402C43F1D0404270BD00F0004230F000400AD0C10DFD
S325080091A001F56071C0F3160042EA0151C20840071143704700200146704701F0004330B441
S325080091C021F0004150EA010206D00A0DA2F56072C1F31301002A02DC30BC00207047440FB6
S325080091E044EAC104C100E01830BC00EBC25000F037B90000002801DBC0F10040002901DBF2
S32508009200C1F1004181427047002801DBC0F10040002901DBC1F100418842704730B50B462F
S32508009220014600202022012409E021FA02F59D4205D303FA02F5491B04FA02F52844151EB4
S32508009240A2F10102F1DC30BD2DE9F05F0546002092469B4688460646814640241BE0284679
S3250800926041464746224600F02FF853465A46C01A914110D311461846224600F016F82D1A23
S3250800928067EB01084F4622460120002100F00DF817EB00094E41201EA4F10104DFDC484676
S325080092A031462A464346BDE8F09F202A04DB203A00FA02F1002070479140C2F1200320FAF4
S325080092C003F3194390407047202A04DB203A21FA02F00021704721FA02F3D040C2F120024A
S325080092E09140084319467047202A06DBCB17203A41FA02F043EAE07306E041FA02F3D040F4
S32508009300C2F12002914008431946704700487047689E070810B50446FFF7F8FF0068005D63
S3250800932000F0010010BD2DE9F05F82460078002715468B460AF10104B946302801D09DB1F3
S3250800934013E014F8010B0127782803D0582801D045B10AE00DB1102D07D10027102514F8ED
S32508009360010B02E0082500E00A250026B0460EE005FB080005FB06F1012701EB10461FFA29
S3250800938080F8B6F5803F00D3B94614F8010B294600F066F90028EBDABBF1000F05D00FB1F8
S325080093A0641E00E05446CBF80040B9F1000F06D020F0D8FB02210160C81EBDE8F09F48EA5E
S325080093C00640FAE70FB4002300B589B00CA900910B996FF00042CB601E4B06931E4B0793C9
S325080093E00423CDE901321D4A089202466B46002000F0C4F909B05DF814FB70B586B00646C4
S325080094004FF0FF300091CDE90101002015460C4604903246694604A8FFF7D4FF03460498A5
S32508009420211825B108B10A4600E022462A6000280DD0002B02DD0098884208D0081B009434
S32508009440CDE901043246694604A8FFF7BBFF06B070BD0000B5990008D39900081593000863
S325080094600029A8BF7047401C490008BF20F00100704710B4B0FA80FC00FA0CF050EA010444
S3250800948004BF10BC704749B1CCF1200421FA04F411FA0CF118BF012121430843A3EB0C013F
S325080094A0CB1D4FEA00614FEA102042BF002010BC704700EBC35010440029A4BF10BC7047AE
S325080094C0401C490008BF20F0010010BC7047F0B4002802DCF0BC00207047C0F3C751C0F3D3
S325080094E0160040F40000CA0701D14000491E3F2202EB6105002211464FF4000626FA01F340
S325080095001344D418844201D8001B1A464000491C1729F3DD5100814202D24FF0FF3100E0F4
S32508009520002102EBC550F0BCFFF79ABF10B5002B08DA401C41F1000192185B411A4301D129
S3250800954020F0010010BD2DE9F04D92469B4611B1B1FA81F202E0B0FA80F220329046FFF717
S32508009560A4FE04460F4640EA0A0041EA0B0153465A46084313D0114653EA010019D0C8F193
S3250800958040025046FFF7A0FE05460E46504659464246FFF78AFE084305D0012004E02046EC
S325080095A03946BDE8F08D0020054346EAE0762C4337430A986305E40AA0EB08000022FD0A71
S325080095C044EA47540A3002D500200146E9E7010510196941DDE9084500196941BDE8F04DDB
S325080095E0A4E7C1F30A52C1F3130140F2FF3341F480119A4202DA00200146704740F2334352
S325080096009A42A2F2334202DC5242FFF75DBEFFF74CBE000030B5002904DB4FF000444042E2
S3250800962064EB0101002B04DB4FF00044524264EB0303994208BF904230BD0000064C074D4E
S3250800964006E0E06840F0010394E8070098471034AC42F6D3FFF770F994A20708B4A2070834
S325080096603A2800D2303820F02002412A01D3A2F13700884201D34FF0FF3070472DE9FF4FDE
S32508009680087881B09946FF2805D0491C2D2804D00024002308E000230BE00124F9E703EB72
S325080096A0830300EB4303491C0878FF28F7D104B15B4200200090147801462D2C01D02B2CBB
S325080096C004D1521C2D2C12D00024009400251678FF2E0ED00A24A0FB04C801FB048100274B
S325080096E000FB0711521C16EB0C006941EFE70124EBE7994450EA01020ED00024AA4D2646D8
S32508009700DFF8A88200F076F982468B46B9F1000009DAC9F100071BE001980021C0E9001185
S3250800972005B0BDE8F08F074612E0F80707D022462B4630464146FFF7CAFB0646884622461A
S325080097402B4610461946FFF7C2FB04460D467F10002FEAD1B9F1000F32464346504659461D
S3250800976002DAFFF726FC01E0FFF7B1FB009A0AB181F00041019AC2E90001D1E72DE9FF4FFA
S325080097801F468DB0D7E901464FF0FF382E2045464FF000090B90B9696D1C0E988847396A1D
S325080097A0824688470028F6D1BAF1FF3F0AD024F4D064002E11DDBAF12B0F08D0BAF12D0F46
S325080097C00BD102E0404611B0ABE744F48064B9696D1C0E9888478246761E6946600501D562
S325080097E02D2000E02B208DF8000001F1010B0DF1200809E0B9696D1C0E98884782460F98C2
S3250800980044F40074761E0560002E02DDBAF1300FF0D00B998A453ED144F0800406E00F9916
S32508009820681CA9F1010944F400740860B9696D1C761E0E98884782463028F0D02BE00B999B
S325080098408A4505D1200603D444F08004761E18E0504620F09FFA08B30DF11301761E44F43C
S3250800986000748B4508D2AAF130000BF8010B200607D5A9F1010003E0200602D409F101006B
S325080098808146A00502D50F99681C0860B9696D1C0E9888478246002ED1DC53E0002E51DD91
S325080098A0BAF1650F02D0BAF1450F4BD1A00549D5B9696D1C24F44074761E0E988847824683
S325080098C0002E0CDD2B2804D0BAF12D0F07D144F48074B9696D1C0E9888478246761EE005F0
S325080098E001D52D2100E02B2108F8011BCDF82C8021E00DF12901761E44F4007488450CD269
S32508009900AAF1300010F0FF0088F8000002D10B99884509D908F1010806E0E00501D52448BA
S3250800992001E042F20F708146B9696D1C0E98884782460F980560002E04DD504620F02AFAF1
S325080099400028D6D1F9690E988847FF208BF8000088F800000020069007904B466A4608A9F2
S3250800996006A8FFF78BFEA00502D46FF001002AE714F0240F0AD0E00714D1DDE90612386865
S32508009980031D3B600068C0E900120BE0DDE90601FFF713FC0146E00704D13868021D3A60C2
S325080099A00068016028460EE7000024400000F03FF1D8FFFF426842B1016811F8013B23B1F4
